{"contracts/SnakeScore.sol":{"SnakeScore":{"abi":[{"inputs":[],"name":"ScoreMustBePositive","type":"error"},{"inputs":[{"internalType":"uint256","name":"previousBest","type":"uint256"},{"internalType":"uint256","name":"attemptedScore","type":"uint256"}],"name":"ScoreMustIncrease","type":"error"},{"anonymous":false,"inputs":[{"indexed":true,"internalType":"address","name":"player","type":"address"},{"indexed":false,"internalType":"uint256","name":"previousBest","type":"uint256"},{"indexed":false,"internalType":"uint256","name":"newBest","type":"uint256"},{"indexed":false,"internalType":"uint256","name":"timestamp","type":"uint256"}],"name":"ScoreUpdated","type":"event"},{"inputs":[{"internalType":"address","name":"player","type":"address"}],"name":"getBestScore","outputs":[{"internalType":"uint256","name":"","type":"uint256"}],"stateMutability":"view","type":"function"},{"inputs":[{"internalType":"uint256","name":"score","type":"uint256"}],"name":"submitScore","outputs":[],"stateMutability":"nonpayable","type":"function"}],"evm":{"bytecode":{"linkReferences":{},"object":"608060405234801561001057600080fd5b506101bd806100206000396000f3fe608060405234801561001057600080fd5b50600436106100365760003560e01c806368b0e1fa1461003b578063aff0b29714610076575b600080fd5b61006461004936600461013e565b6001600160a01b031660009081526020819052604090205490565b60405190815260200160405180910390f35b61008961008436600461016e565b61008b565b005b806000036100ac5760405163a17a024560e01b815260040160405180910390fd5b336000908152602081905260409020548082116100ea57604051634461944d60e01b8152600481018290526024810183905260440160405180910390fd5b33600081815260208181526040918290208590558151848152908101859052428183015290517f4e129cd592c4928775615d37d8f0f5a5e1257dec2f17b8b5fe34881b83b1cdc59181900360600190a25050565b60006020828403121561015057600080fd5b81356001600160a01b038116811461016757600080fd5b9392505050565b60006020828403121561018057600080fd5b503591905056fea264697066735822122035a45566e9a8d0cd5ba1ee0d1bd4b2e396fd521ce6a446de809e92b1046e9b7e64736f6c63430008180033","opcodes":"PUSH1 0x80 PUSH1 0x40 MSTORE CALLVALUE DUP1 ISZERO PUSH2 0x10 JUMPI PUSH1 0x0 DUP1 REVERT JUMPDEST POP PUSH2 0x1BD DUP1 PUSH2 0x20 PUSH1 0x0 CODECOPY PUSH1 0x0 RETURN INVALID PUSH1 0x80 PUSH1 0x40 MSTORE CALLVALUE DUP1 ISZERO PUSH2 0x10 JUMPI PUSH1 0x0 DUP1 REVERT JUMPDEST POP PUSH1 0x4 CALLDATASIZE LT PUSH2 0x36 JUMPI PUSH1 0x0 CALLDATALOAD PUSH1 0xE0 SHR DUP1 PUSH4 0x68B0E1FA EQ PUSH2 0x3B JUMPI DUP1 PUSH4 0xAFF0B297 EQ PUSH2 0x76 JUMPI JUMPDEST PUSH1 0x0 DUP1 REVERT JUMPDEST PUSH2 0x64 PUSH2 0x49 CALLDATASIZE PUSH1 0x4 PUSH2 0x13E JUMP JUMPDEST PUSH1 0x1 PUSH1 0x1 PUSH1 0xA0 SHL SUB AND PUSH1 0x0 SWAP1 DUP2 MSTORE PUSH1 0x20 DUP2 SWAP1 MSTORE PUSH1 0x40 SWAP1 KECCAK256 SLOAD SWAP1 JUMP JUMPDEST PUSH1 0x40 MLOAD SWAP1 DUP2 MSTORE PUSH1 0x20 ADD PUSH1 0x40 MLOAD DUP1 SWAP2 SUB SWAP1 RETURN JUMPDEST PUSH2 0x89 PUSH2 0x84 CALLDATASIZE PUSH1 0x4 PUSH2 0x16E JUMP JUMPDEST PUSH2 0x8B JUMP JUMPDEST STOP JUMPDEST DUP1 PUSH1 0x0 SUB PUSH2 0xAC JUMPI PUSH1 0x40 MLOAD PUSH4 0xA17A0245 PUSH1 0xE0 SHL DUP2 MSTORE PUSH1 0x4 ADD PUSH1 0x40 MLOAD DUP1 SWAP2 SUB SWAP1 REVERT JUMPDEST CALLER PUSH1 0x0 SWAP1 DUP2 MSTORE PUSH1 0x20 DUP2 SWAP1 MSTORE PUSH1 0x40 SWAP1 KECCAK256 SLOAD DUP1 DUP3 GT PUSH2 0xEA JUMPI PUSH1 0x40 MLOAD PUSH4 0x4461944D PUSH1 0xE0 SHL DUP2 MSTORE PUSH1 0x4 DUP2 ADD DUP3 SWAP1 MSTORE PUSH1 0x24 DUP2 ADD DUP4 SWAP1 MSTORE PUSH1 0x44 ADD PUSH1 0x40 MLOAD DUP1 SWAP2 SUB SWAP1 REVERT JUMPDEST CALLER PUSH1 0x0 DUP2 DUP2 MSTORE PUSH1 0x20 DUP2 DUP2 MSTORE PUSH1 0x40 SWAP2 DUP3 SWAP1 KECCAK256 DUP6 SWAP1 SSTORE DUP2 MLOAD DUP5 DUP2 MSTORE SWAP1 DUP2 ADD DUP6 SWAP1 MSTORE TIMESTAMP DUP2 DUP4 ADD MSTORE SWAP1 MLOAD PUSH32 0x4E129CD592C4928775615D37D8F0F5A5E1257DEC2F17B8B5FE34881B83B1CDC5 SWAP2 DUP2 SWAP1 SUB PUSH1 0x60 ADD SWAP1 LOG2 POP POP JUMP JUMPDEST PUSH1 0x0 PUSH1 0x20 DUP3 DUP5 SUB SLT ISZERO PUSH2 0x150 JUMPI PUSH1 0x0 DUP1 REVERT JUMPDEST DUP2 CALLDATALOAD PUSH1 0x1 PUSH1 0x1 PUSH1 0xA0 SHL SUB DUP2 AND DUP2 EQ PUSH2 0x167 JUMPI PUSH1 0x0 DUP1 REVERT JUMPDEST SWAP4 SWAP3 POP POP POP JUMP JUMPDEST PUSH1 0x0 PUSH1 0x20 DUP3 DUP5 SUB SLT ISZERO PUSH2 0x180 JUMPI PUSH1 0x0 DUP1 REVERT JUMPDEST POP CALLDATALOAD SWAP2 SWAP1 POP JUMP INVALID LOG2 PUSH5 0x6970667358 0x22 SLT KECCAK256 CALLDATALOAD LOG4 SSTORE PUSH7 0xE9A8D0CD5BA1EE 0xD SHL 0xD4 0xB2 0xE3 SWAP7 REVERT MSTORE SHR 0xE6 LOG4 CHAINID 0xDE DUP1 SWAP15 SWAP3 0xB1 DIV PUSH15 0x9B7E64736F6C634300081800330000 "},"methodIdentifiers":{"getBestScore(address)":"68b0e1fa","submitScore(uint256)":"aff0b297"}}}}}